:020000040800F2
:10000000600800209D010008C5060008C70600081A
:10001000C9060008CB060008CD0600080000000055
:10002000000000000000000000000000CF060008F3
:10003000D106000800000000D3060008D70600081B
:10004000B7010008B7010008B7010008B7010008B0
:10005000B7010008B7010008B7010008B7010008A0
:10006000B7010008B7010008B7010008B701000890
:10007000B7010008B7010008B7010008B701000880
:10008000B7010008B7010008B7010008B701000870
:10009000B7010008B7010008B7010008B701000860
:1000A000B7010008B7010008B7010008B701000850
:1000B000B7010008B7010008B7010008B701000840
:1000C000B7010008B7010008B7010008B701000830
:1000D000B7010008B7010008B7010008B701000820
:1000E000B7010008B7010008B7010008B701000810
:1000F000B7010008B7010008B7010008B701000800
:10010000B7010008B7010008B7010008B7010008EF
:10011000B7010008B7010008B7010008B7010008DF
:10012000B7010008B7010008B7010008B7010008CF
:10013000B7010008B7010008B7010008B7010008BF
:10014000B7010008B7010008B7010008B7010008AF
:10015000B7010008B7010008B7010008B70100089F
:10016000B7010008B7010008B7010008B70100088F
:10017000B7010008B7010008B7010008B70100087F
:10018000B7010008B7010008DFF80CD000F078FBD9
:10019000004800475D0600086008002006488047C8
:1001A00006480047FEE7FEE7FEE7FEE7FEE7FEE75C
:1001B000FEE7FEE7FEE7FEE70D08000889010008FC
:1001C00070B55A484168491C4160816811B1816825
:1001D000491E8160AFF300800024554E18E006EB05
:1001E0008405686890B1017B81B1826872B1521E4A
:1001F000826069680AD14869096988476868016846
:1002000081606868416809B900210173641CE4B227
:100210003078A042E3D870BD464801684FF47A7048
:10022000B1FBF0F0401EB0F1807F12D24FF0E0221F
:100230005061414BF02083F8140D0020906107209D
:1002400010613E48B1FBF0F13848C16001210170F6
:100250007047FEE735480078002805D04FF0E020D1
:10026000016941F00201016170474FF0E02001692E
:1002700021F00201016170472DE9F0472C4C054641
:10028000DDF8209020781E4617468846052802D3C0
:100290000020BDE8F087182000F03CFB0028F8D0D3
:1002A0000560C0E901850773C0E90469217804EBA2
:1002B000810148602178491C2170EAE71C4B30B469
:1002C00000211A7806E003EB81046468844203D0BD
:1002D000491CC9B28A42F6D88A4218D003EB810081
:1002E0004068EFF3108472B605E003EB8102491C0D
:1002F0009568C9B255601A78521E8A42F5DC1978A1
:10030000491E197004B962B630BC00F0DBBA30BCCB
:100310007047002101737047012101737047016824
:1003200081607047416070470160704700000020A5
:1003300030000020140000200FE000E0C0C62D00B7
:100340001CB500200321CDE9000103464FF47044A1
:1003500001222146184800F085F817481A30048019
:100360001CBD1CB500210220CDE900010B460A4648
:100370000121124800F076F81CBD10480069C10741
:100380000F4805D0017829B901210170084670474E
:10039000002101700020704708480069C107084823
:1003A00003D0012101700020704701780029FAD0A4
:1003B0000021017001207047000C02400000024043
:1003C00010000020A2490844C0F38F2070472DE997
:1003D000F04F9A46DDE909B889460346FFF7F2FF78
:1003E000C5B200204FF0030E0121814011EA090F30
:1003F00028D0984E36F815400C4326F81540DF6893
:1004000044000EFA04F6B7430BFA04FC47EA0C0763
:10041000DF601F6802FA04FCB74347EA0C071F605D
:10042000012A01D0022A0DD15F6889B28F430AFAEE
:1004300000F189B20F435F60996808FA04F4B14390
:1004400021439960401CC0B21028CDD3BDE8F08F85
:1004500000B5FFF7B7FF012181407F4802681143D3
:10046000016000BDFCB51646DDE907C50C00074676
:1004700008D0FFF7EDFFCDE900C5324621463846EA
:10048000FFF7A5FFFCBD2DE9FC4F9946DDE90BB751
:1004900092460D00064622D0FFF7DAFF0022012126
:1004A0004FF00F0C01FA02F028420DD0D00806EBF5
:1004B0008003186A5407E40E0CFA04F820EA0800D6
:1004C00007FA04F420431862521C102AEAD3CDE93B
:1004D000009B5346022229463046FFF778FFBDE8CD
:1004E000FC8FF0B50E460546FFF76CFF0022594918
:1004F000C4B24FF0010C03270CFA02F333420CD0C4
:1005000028684FEA420E07FA0EFE40EA0E00286005
:1005100031F81400984321F81400521CD2B2102A6A
:10052000EAD3F0BDF0B500220125032605FA02F357
:100530000B4205D00468570006FA07F39C43046099
:10054000521CD2B2102AF1D3F0BDF0B5002201271F
:10055000032607FA02F33C460B4208D00568530015
:1005600006FA03FC25EA0C059C4025430560521C55
:10057000D2B2102AEDD3F0BDF0B50022012503263A
:1005800005FA02F30B4205D00468570006FA07F398
:100590001C430460521CD2B2102AF1D3F0BDF0B556
:1005A000002201260324022706FA02F30B4209D097
:1005B0000568530004FA03FC25EA0C0507FA03F367
:1005C0001D430560521CD2B2102AEDD3F0BDF0B528
:1005D00000230127032507FA03F40C4209D0C6685B
:1005E0005C0005FA04FC26EA0C0602FA04F4264331
:1005F000C6605B1CDBB2102BEDD3F0BD41F4803242
:10060000C261C161C2617047002102E0491C89B228
:1006100040080128FAD80846704700B5FFF7D2FE17
:10062000012181400C4802688A43026000BD00B588
:10063000FFF7C8FE074931F8100000BD00B5FFF70D
:10064000C1FE044931F81000C04380B200BD000073
:100650000000FEBF480000203038024000F0D6F80D
:10066000FFF7DAFDFFF76CFE14494FF47040088085
:100670004FF4FA6000F00CF8104C4FF4FA75241F98
:10068000206880F470412160284600F001F8F7E707
:100690000B4908B50A680092EFF3058242B14FF0AA
:1006A000E021002809D00A69D203FAD5401EF8E7F4
:1006B0000A68009BD21A8242FAD308BD180C024085
:1006C000040000207047FEE7FEE7FEE7FEE7704704
:1006D00070477047704710B5FFF7FCFF10BD000072
:1006E00070B55D4D28685D4B5D4910F00C0004D07D
:1006F0005E10042803D0082803D00B601BE00E60B6
:1007000019E0554A121F1068C0F38054106800F0B9
:100710003F0014B1B6FBF0F001E0B3FBF0F013685A
:100720001268C3F388135843C2F30142521C5200AB
:10073000B0FBF2F008602868494AC0F30310121DAC
:10074000105C0A68C2400A6070BD1CB400224248B6
:10075000009208380192016841F4803101604FF441
:10076000A043016801F4003101910099491C0091F6
:10077000019911B900999942F3D10168890302D511
:100780000121019100E00192334938310A6842F0B9
:1007900080520A6033490A6842F440420A602E4996
:1007A0000A680A600A6842F400420A600A6842F471
:1007B000A0520A60019C0A1F2B4B012C1AD02B4C13
:1007C0001460026842F08072026002689201FCD5F7
:1007D00040F202701860086820F0030008600868A2
:1007E00040F0020008600868C0F381000228FAD1D6
:1007F0001CBC75E71E4C1460026842F080720260F7
:1008000002689201FCD540F20570E3E7194810B583
:10081000016841F4700101600F480838016841F037
:10082000010101600C4A002111600268124B1A405C
:100830000260031D114A1A60026822F480220260DD
:100840000548001D0160FFF780FF0A494FF0006076
:100850008039086010BD0000083802400024F40010
:100860001400002000700040003C024008540007C3
:100870000854400788ED00E0FFFFF6FE103000242A
:10088000064C074D06E0E06840F0010394E80700DD
:1008900098471034AC42F6D3FFF77AFC8009000881
:1008A000A009000802E008C8121F08C1002AFAD1F6
:1008B00070477047002001E001C1121F002AFBD1E0
:1008C0007047000010B5002821D0114B0022001FF6
:1008D000196803E0814203D80A4649680029F9D122
:1008E00052B11368841A9C4204D100681844106005
:1008F000104602E0506000E0186039B102680B1A3F
:10090000934203D10B681A4402604968416010BDEC
:1009100028000020F0B50B30154D20F00701002411
:10092000144A0FE003688B420BD38B4205D95E1A41
:1009300043184768C3E9006700E04368136002C0DA
:1009400004E0021D10680028ECD12046002802D1E6
:10095000286808B10020F0BD064A07481060074A21
:10096000121A22F00702C0E9002401202860D7E70C
:100970002C000020280000206400002060040020DB
:10098000A00900080000002030000000A4080008B2
:10099000D00900083000002030080000B40800082A
:1009A0000000000000000000000000000000000047
:1009B00000000000007A030A0000000000000000B0
:1009C00001020304060708090000000000000000FF
:040000050800018965
:00000001FF
