:020000040800F2
:1000000060080020AD010008D5060008D7060008EA
:10001000D9060008DB060008DD0600080000000025
:10002000000000000000000000000000DF060008E3
:10003000E106000800000000E3060008E7060008EB
:10004000C7010008C7010008C7010008C701000870
:10005000C7010008C7010008C7010008C701000860
:10006000C7010008C7010008C7010008C701000850
:10007000C7010008C7010008C7010008C701000840
:10008000C7010008C7010008C70100080000000000
:10009000000000000000000000000000C701000890
:1000A000C7010008C7010008C7010008C701000810
:1000B000C7010008C7010008C7010008C701000800
:1000C000C7010008C7010008C7010008C7010008F0
:1000D000C7010008C7010008C701000800000000B0
:1000E000C7010008C7010008C701000800000000A0
:1000F000000000000000000000000000C701000830
:1001000000000000C7010008C7010008C70100087F
:1001100000000000000000000000000000000000DF
:10012000C7010008C7010008C7010008C70100088F
:10013000C7010008000000000000000000000000EF
:10014000000000000000000000000000C7010008DF
:10015000C7010008C7010008C7010008C70100085F
:10016000C7010008C70100080000000000000000EF
:10017000000000000000000000000000000000007F
:1001800000000000C701000800000000000000009F
:10019000C7010008C7010008DFF80CD000F074FBAD
:1001A00000480047710600086008002006488047A4
:1001B00006480047FEE7FEE7FEE7FEE7FEE7FEE74C
:1001C000FEE7FEE7FEE7FEE71508000899010008D4
:1001D00070B55A484168491C4160816811B1816815
:1001E000491E8160AFF300800024554E18E006EBF5
:1001F0008405686890B1017B81B1826872B1521E3A
:10020000826069680AD14869096988476868016835
:1002100081606868416809B900210173641CE4B217
:100220003078A042E3D870BD464801684FF47A7038
:10023000B1FBF0F0401EB0F1807F12D24FF0E0220F
:100240005061414BF02083F8140D0020906107208D
:1002500010613E48B1FBF0F13848C16001210170E6
:100260007047FEE735480078002805D04FF0E020C1
:10027000016941F00201016170474FF0E02001691E
:1002800021F00201016170472DE9F0472C4C054631
:10029000DDF8209020781E4617468846052802D3B0
:1002A0000020BDE8F087182000F038FB0028F8D0C7
:1002B0000560C0E901850773C0E90469217804EB92
:1002C000810148602178491C2170EAE71C4B30B459
:1002D00000211A7806E003EB81046468844203D0AD
:1002E000491CC9B28A42F6D88A4218D003EB810071
:1002F0004068EFF3108472B605E003EB8102491CFD
:100300009568C9B255601A78521E8A42F5DC197890
:10031000491E197004B962B630BC00F0D7BA30BCBF
:100320007047002101737047012101737047016814
:100330008160704741607047016070470000002095
:1003400030000020140000200FE000E0C0C62D00A7
:100350001CB500200321CDE900011B4C03460122FE
:100360002021204600F086F8202161831CBD1CB5A9
:10037000002101200B460A46CDE900014103134844
:1003800000F078F81CBD1148103000688104104856
:1003900005D4017829B90121017008467047002170
:1003A0000170002070470948103000688104084837
:1003B00005D5017829B10021017001207047012184
:1003C0000170002070470000000002400008024059
:1003D00010000020A3490844C0F38F2070472DE986
:1003E000F04F9A46DDE909B889460346FFF7F2FF68
:1003F000C5B200204FF0030E0121814011EA090F20
:1004000028D0994E36F815400C4326F81540DF6881
:1004100044000EFA04F6B7430BFA04FC47EA0C0753
:10042000DF601F6802FA04FCB74347EA0C071F604D
:10043000012A01D0022A0DD15F6889B28F430AFADE
:1004400000F189B20F435F60996808FA04F4B14380
:1004500021439960401CC0B21028CDD3BDE8F08F75
:1004600000B5FFF7B7FF01218140804802681143C2
:10047000016000BDFCB51646DDE907C50C00074666
:1004800008D0FFF7EDFFCDE900C5324621463846DA
:10049000FFF7A5FFFCBD2DE9FC4F9946DDE90BB741
:1004A00092460D00064622D0FFF7DAFF0022012116
:1004B0004FF00F0C01FA02F028420DD0D00806EBE5
:1004C0008003186A5407E40E0CFA04F820EA0800C6
:1004D00007FA04F420431862521C102AEAD3CDE92B
:1004E000009B5346022229463046FFF778FFBDE8BD
:1004F000FC8FF0B50E460546FFF76CFF00225A4907
:10050000C4B24FF0010C03270CFA02F333420CD0B3
:1005100028684FEA420E07FA0EFE40EA0E002860F5
:1005200031F81400984321F81400521CD2B2102A5A
:10053000EAD3F0BDF0B500220125032605FA02F347
:100540000B4205D00468570006FA07F39C43046089
:10055000521CD2B2102AF1D3F0BDF0B5002201270F
:10056000032607FA02F33C460B4208D00568530005
:1005700006FA03FC25EA0C059C4025430560521C45
:10058000D2B2102AEDD3F0BDF0B50022012503262A
:1005900005FA02F30B4205D00468570006FA07F388
:1005A0001C430460521CD2B2102AF1D3F0BDF0B546
:1005B000002201260324022706FA02F30B4209D087
:1005C0000568530004FA03FC25EA0C0507FA03F357
:1005D0001D430560521CD2B2102AEDD3F0BDF0B518
:1005E00000230127032507FA03F40C4209D0C6684B
:1005F0005C0005FA04FC26EA0C0602FA04F4264321
:10060000C6605B1CDBB2102BEDD3F0BD41F4803231
:10061000C261C161C261C169C0697047002102E065
:10062000491C89B240080128FAD80846704700B52D
:10063000FFF7D0FE012181400C4802688A43026026
:1006400000BD00B5FFF7C6FE074931F8100000BD38
:1006500000B5FFF7BFFE044931F81000C04380B277
:1006600000BD00000000FEBF4800002030380240FE
:1006700000F0D0F8FFF7D8FDFFF76AFE134C2020FA
:1006800020834FF4FA6000F00AF84FF4FA756069BD
:1006900080F020016161284600F001F8F7E70C497D
:1006A00008B50A680092EFF3058242B14FF0E021ED
:1006B000002809D00A69D203FAD5401EF8E70A6873
:1006C000009BD21A8242FAD308BD0000000002400B
:1006D000040000207047FEE7FEE7FEE7FEE77047F4
:1006E00070477047704710B5FFF772FD10BD0000EE
:1006F00070B55B4D28685B4B5B4910F00C0004D073
:100700005E10042803D0082803D00B601BE00E60A5
:1007100019E0534A121F1068C0F38054106800F0AB
:100720003F0014B1B6FBF0F001E0B3FBF0F013684A
:100730001268C3F388135843C2F30142521C52009B
:10074000B0FBF2F008602868474AC0F30310121D9E
:10075000105C0A68C2400A6070BD3CB40022404888
:10076000009208380192016841F4803101604FF431
:10077000A043016801F4003101910099491C0091E6
:10078000019911B900999942F3D10168890302D501
:100790000121019100E00192314938310A6842F0AB
:1007A00080520A6031490A6842F440420A602C498A
:1007B0000A680A600A680A600A6842F480520A609D
:1007C000019D0A1F2A4C40F20273012D18D0294DB9
:1007D0001560026842F08072026002689201FCD5E6
:1007E0002360086820F003000860086840F00200F9
:1007F00008600868C0F381000228FAD13CBC77E7A2
:100800001D4D1560026842F080720260026892011C
:10081000FCD5E5E7194810B5016841F470010160A5
:100820000F480838016841F0010101600C4A0021BD
:1008300011600268124B1A400260031D114A1A60CF
:10084000026822F4802202600548001D0160FFF763
:1008500084FF0A494FF000608039086010BD000035
:10086000083802400024F40014000020007000400A
:10087000003C0240086401080864410888ED00E07B
:10088000FFFFF6FE10300024064C074D06E0E0683E
:1008900040F0010394E8070098471034AC42F6D3C7
:1008A000FFF77EFC88090008A809000802E008C8D4
:1008B000121F08C1002AFAD170477047002001E0DA
:1008C00001C1121F002AFBD17047000010B500289B
:1008D00021D0114B0022001F196803E0814203D888
:1008E0000A4649680029F9D152B11368841A9C421A
:1008F00004D1006818441060104602E0506000E027
:10090000186039B102680B1A934203D10B681A447C
:1009100002604968416010BD28000020F0B50B302E
:10092000154D20F007010024144A0FE003688B42A4
:100930000BD38B4205D95E1A43184768C3E9006799
:1009400000E04368136002C004E0021D1068002844
:10095000ECD12046002802D1286808B10020F0BD63
:10096000064A07481060074A121A22F00702C0E937
:10097000002401202860D7E72C0000202800002058
:100980006400002060040020A80900080000002086
:1009900030000000AC080008D80900083000002032
:1009A00030080000BC080008000000000000000043
:1009B00000000000000000000000000000E1F5055C
:1009C00000000000000000000102030406070809FF
:0809D00000000000000000001F
:040000050800019955
:00000001FF
